:020000040800F2
:10000000F8060020650100086D120008C7110008FD
:1000100000000000000000000000000000000000E0
:100020000000000000000000000000007112000845
:1000300000000000000000006F12000873120008AA
:1000400077010008770100087701000877010008B0
:1000500077010008770100087701000877010008A0
:100060007701000877010008770100087701000890
:100070007701000877010008770100087701000880
:100080007701000877010008770100087701000870
:100090007701000877010008770100087701000860
:1000A0007701000877010008770100087701000850
:1000B00077010008A91800087701000877010008F7
:1000C00000F002F800F03EF80CA030C80838241800
:1000D0002D18A246671EAB4654465D46AC4201D180
:1000E00000F030F87E460F3E0FCCB6460126334274
:1000F00000D0FB1AA246AB4633431847A4180000B1
:10010000C4180000103A02D378C878C1FAD8520750
:1001100001D330C830C101D504680C6070470000BD
:100120000023002400250026103A01D378C1FBD813
:10013000520700D330C100D50B6070471FB51FBDFB
:1001400010B510BD00F07BF91146FFF7F7FF01F085
:10015000EDFB00F093F903B4FFF7F2FF03BC00F0EE
:1001600099F900000748804707480047FEE7FEE787
:10017000FEE7FEE7FEE7FEE704480549054A064BB1
:1001800070470000C9120008C1000008F8000020F4
:10019000F8060020F8020020F8020020FEB505460F
:1001A00010460C46184373D0AE468C460020AD1A5C
:1001B00001469C4167D36646002701243D46B61A96
:1001C0009D4102D313463A462124654676462F04C4
:1001D000360C3E432D0CB61A9D4104D3150C1B045E
:1001E0002B4312041034654676462F06360A3E43EA
:1001F0002D0AB61A9D4104D3150E1B022B43120281
:100200000834654676462F0736093E432D09B61A4F
:100210009D4104D3150F1B012B431201241D65467C
:100220007646AF07B6083E43AD08B61A9D4104D3E3
:10023000950F9B002B439200A41C65467646EF0762
:1002400076083E436D08B61A9D411AD392185B4159
:10025000641C16E00018764665464941B71A9D4170
:100260000191009009D36046B11A98418E468446A8
:10027000009801990025401C6941DD0752082A4376
:100280005B08641EE6D57246634603B0F0BDFFE727
:1002900000200146C046C0462A462346F5E701E055
:1002A00004C0091F0429FBD28B0701D50280801CE2
:1002B000C90700D00270704700290BD0C30702D0D5
:1002C0000270401C491E022904D3830702D5028014
:1002D000801C891EE3E70022EEE70022DFE7002210
:1002E00003098B422CD3030A8B4211D300239C4673
:1002F0004EE003460B433CD4002243088B4231D3EB
:1003000003098B421CD3030A8B4201D394463FE07E
:10031000C3098B4201D3CB01C01A524183098B42DE
:1003200001D38B01C01A524143098B4201D34B01C7
:10033000C01A524103098B4201D30B01C01A52412A
:10034000C3088B4201D3CB00C01A524183088B42B1
:1003500001D38B00C01A524143088B4201D34B009A
:10036000C01A5241411A00D201465241104670470C
:100370005DE0CA0F00D04942031000D34042534011
:1003800000229C4603098B422DD3030A8B4212D3D1
:10039000FC22890112BA030A8B420CD38901921103
:1003A0008B4208D3890192118B4204D389013AD040
:1003B000921100E08909C3098B4201D3CB01C01A15
:1003C000524183098B4201D38B01C01A5241430928
:1003D0008B4201D34B01C01A524103098B4201D316
:1003E0000B01C01A5241C3088B4201D3CB00C01A83
:1003F000524183088B4201D38B00C01A5241D9D29B
:1004000043088B4201D34B00C01A5241411A00D21B
:100410000146634652415B10104601D34042002B17
:1004200000D54942704763465B1000D3404201B596
:100430000020C046C04602BD7047704770477546F1
:1004400000F024F8AE46050069465346C008C000D7
:10045000854618B020B5FFF78FFE60BC002749081D
:10046000B6460026C0C5C0C5C0C5C0C5C0C5C0C54C
:10047000C0C5C0C5403D49008D46704710B5044613
:10048000C046C0462046FFF766FE10BD00487047D4
:100490009800002001491820ABBEFEE726000200AC
:1004A000704730B5014620314B780022022B04D032
:1004B000042383630A70012030BD03681C680E2585
:1004C000AC431C6003681C68640864001C60012362
:1004D000056C1C46C06BAC4044604B700A70002039
:1004E00030BD70B50024014620314A78022A03D07D
:1004F00004218163012416E0026813680E25AB43D2
:100500001360026813685B085B0013600122056CCE
:100510001346AB40C56B6B604A7000220A70416B9A
:10052000002900D08847204670BD0000F8B50023A0
:1005300003240125BFE02E469E40B44632407CD0C5
:100540000E79B607B60F012E01D0022E17D186689C
:100550002746B6465E00B74000967646BE43B6468E
:10056000CF68009EB7407646374387604668674647
:10057000BE430F79FF06FF0F9F40374347600E7958
:10058000F643B6070ED0C6682746B4465E00B646A8
:10059000B7406646BE43B4468F687646B740664667
:1005A0003743C7600E79B607B60F022E14D1DE08A6
:1005B000B60036180096366A5F07B446FE0E0F275F
:1005C000B646B7406646BE43B4460F697646B74066
:1005D00066463743009E376206682746B4465E008B
:1005E000B646B7406646BE430F79B446BF07BF0F55
:1005F0007646B7406646374307604E68B603B60F87
:1006000058D0304FBE692E43BE61BE699F08F607C1
:10061000F60F2D4EBF00BE190096B6680F27B446E0
:100620009E07360FB646B7406646BE430927FF060B
:10063000B446B84202D1002715E03BE0234FB84250
:1006400001D101270FE0224FB84201D102270AE071
:10065000204FB84201D1032705E01F4FB84201D116
:10066000042700E005277646B74066463743009EDC
:10067000B7601A4E36684F689643FF0300D516439D
:10068000164F3E607E684F689643BF0300D5164301
:10069000124F7E60BE684F689643FF0200D5164336
:1006A0000E4FBE60FE684F689643BF0200D51643EA
:1006B0000A4AD6605B1C0A681646DE4000D03AE75C
:1006C000F8BD000000100240000001400004004896
:1006D00000080048000C00480010004800040140D9
:1006E000426913460B401B0491430B4383617047DF
:1006F000002A01D08161704781627047014880689B
:1007000070470000040000200248816802788918C0
:10071000816070470400002010B50648016810226F
:1007200011430160032000F007F800F027F80020D3
:1007300010BD00000020024070B504460D4D7D2024
:100740002978C000FFF7CBFD01460B480068FFF792
:10075000C6FD00F01DFB002809D1042C07D20022A1
:100760002146401E00F02AF800206C6070BD012078
:1007700070BD0000040000201000002008B50848EB
:100780008169012211438161816911400091C2692F
:1007900001040A43C261C0690840009008BD00001E
:1007A00000100240002805DBC106C90E0120884068
:1007B000014908607047000000E100E010B501F059
:1007C00093F810BDF8B50F4606005FD03D4D286880
:1007D000C007C00FB84209D228684008400038431B
:1007E00028602868C007C00FB8424FD13068364C27
:1007F00081070CD5400704D560680721090208432A
:1008000060606068F0218843B168084360603078B8
:10081000C0072CD07068012810D0022811D00328FE
:1008200012D021688907002930DA616889088900B7
:1008300001436160FFF762FF009011E021688903C6
:10084000F1E721688901EEE7616BC903EBE7FFF788
:1008500055FF0099411A1D48814201D90320F8BD76
:1008600060680C210840716889008842EFD12868CF
:10087000C007C00FB8420BD9286840084000384371
:1008800028602868C007C00FB84201D00120F8BD19
:100890003078400706D56068072109028843F1686F
:1008A0000843606000F028F86168094A0906090FEA
:1008B000515CC840074908600320FFF73DFF002056
:1008C000F8BD000000200240001002408813000024
:1008D000881900081000002004480549006849688C
:1008E000044A4905490F515CC84070471000002078
:1008F000001002409819000830B519A30FCB89B039
:100900006C460FC41AA30FCB0FC41D4A51680C20AC
:100910000B4603401B48042B05D01B4D082B04D06D
:100920000C2B00D1284609B030BD8B021B0F6C4642
:10093000E45CD26A04AB1207120FC9039A5C890FF8
:10094000022901D0032901D0002301E00023284619
:100950000021FFF723FC214600F0AEFFE3E7000093
:1009600002030405060708090A0B0C0D0E0F1010F0
:100970000102030405060708090A0B0C0D0E0F10EF
:100980000010024000127A00006CDC02FEB5040088
:1009900070D02078F94EFA4DC00748D0686800073B
:1009A000800F01281FD068680007800F022804D13B
:1009B0006868C003800F022815D06168012919D02A
:1009C00001208004002901D0052917D02968B143EE
:1009D0002960296881432960606800281BD0FFF7DF
:1009E0008DFE074613E02868800320D56068002844
:1009F000CED01CE0286830432860EDE72968014329
:100A00002960F7E7FFF77AFEC01B642870D82868D2
:100A10008003F7D50BE0FFF771FE074604E0FFF710
:100A20006DFEC01B6428F1D828688003F7D42078B5
:100A300080073FD568680007800F14D068680007FA
:100A4000800F022804D16868C003800F01280AD0F3
:100A5000E068002828681ED0012108432860FFF7BD
:100A60004DFE07460CE0286880070CD5E068012899
:100A700000D108E080E1FFF741FEC01B0228C5D885
:100A800028688007F7D52868F82188432169C900BC
:100A9000084328600EE0400840002860FFF72EFE63
:100AA000074604E0FFF72AFEC01B0228AED82868DC
:100AB0008007F7D42078000723D5E0690028686A0A
:100AC0000FD0012108436862FFF718FE074604E0D3
:100AD000FFF714FEC01B022898D8686A8007F7D574
:100AE0000FE0400840006862FFF708FE074605E097
:100AF000C3E0FFF703FEC01B022887D8686A80079F
:100B0000F7D4207804274007002861DA00200190FC
:100B1000E869C00008D4E969B8060143E961E969F8
:100B2000014001200091019096480168C90511D447
:100B30000168821511430160FFF7E0FD009005E0B8
:100B4000FFF7DCFD0099401A642898D88D480068AA
:100B5000C005F5D5A06801280AD0002801D00528D5
:100B600011D0286A400840002862286AB84302E091
:100B7000286A012108432862A068002812D0FFF7E4
:100B8000BDFD00900AE0286A38432862F0E7FFF7CD
:100B9000B5FD0099411A7C4881426ED8286A8007C9
:100BA000F5D50DE0FFF7AAFD009006E0FFF7A6FDE2
:100BB0000099411A744881425FD8286A8007F5D4A9
:100BC0000198002804D0E969012000078143E96108
:100BD0002078C00635D5606901280CD0401D686BAF
:100BE00024D038436863686B400840006863FFF7AF
:100BF00085FD074622E0686B38436863686B012116
:100C000008436863FFF77AFD074604E0FFF776FDC7
:100C1000C01B022831D8686B8007F7D5686BF821B4
:100C20008843A169C900084368630AE0B843686360
:100C3000F4E7FFF763FDC01B02281ED8686B80072E
:100C4000F7D42078800637D568680007800F03281E
:100C500014D068680007800F022804D16868C003B8
:100C6000800F03280AD0206A0028686B16D0304312
:100C70006863FFF743FD06460CE062E0686BC00363
:100C80001AD5206A012877D116E0FFF737FD801BBF
:100C9000022856D8686BC003F7D50DE0B0436863EF
:100CA000FFF72CFD064604E0FFF728FD801B022815
:100CB00047D8686BC003F7D4606A002866D06968BB
:100CC0000907890F022942D0012636060228286822
:100CD00005D0B0432860FFF711FD044633E0B04370
:100CE0002860FFF70BFD074604E0FFF707FDC01B78
:100CF000022826D828688001F7D4E86A216B000909
:100D000000010843E862A16AE06A084369687B223F
:100D1000D203914308436860286830432860FFF796
:100D2000EDFC044604E0FFF7E9FC001B022808D8AC
:100D300028688001F7D529E0FFF7E0FC001B0228B6
:100D400001D90320FEBD28688001F5D41EE00128EA
:100D5000F8D06868E96A0322D203A36A02409A4283
:100D60000AD10907226B090F914205D10F2189048D
:100D70000840E16A884209D00120FEBD0000010060
:100D80000010024000700040881300000020F4E7CB
:100D9000094910B5401E884201D9012010BD074CF9
:100DA00060610321081F00F09FFD0020A061072063
:100DB0002061002010BD0000FFFFFF0000E000E008
:100DC0007047704770470000F8B502680446D06964
:100DD00011689668A24B03401D462023002D75D054
:100DE000F707A04DFF0FBC460D402F436DD02546A1
:100DF000C7078035002F06D0CF0504D5012717621D
:100E00002A683A432A60820708D5F20706D0276885
:100E100002223A622A6804273A432A60420708D528
:100E2000F20706D02668042232622A68022632437C
:100E30002A6002070AD50A461A406646324305D0A0
:100E40002668082232622E6816432E60020508D5F5
:100E50004A0106D501222668D20232622A681A4364
:100E60002A602A68002A39D0800606D5880604D56B
:100E7000616E002901D0204688472868216889686A
:100E8000490602D4282108422DD0204600F0BEFA9F
:100E900021688868400622D5EFF31080012282F392
:100EA00010888B68402293438B6080F31088206FFA
:100EB000002814D06C494163206FFFF712FB002813
:100EC0000CD0206F416B08E000E012E0850610D5E1
:100ED0008D060ED5616EA8E020468847F8BD2046F5
:100EE000FFF770FFF8BD2046FFF76CFF0020286079
:100EF000F8BD256E012D7DD1C5067BD5CD0679D5F2
:100F00001026166222689068254640064035002863
:100F100045DA216F086840680004000CE8D02F8B88
:100F20008742E5D968838869202833D0EFF31080A1
:100F3000012181F3108811683701B943116080F3F2
:100F40001088EFF31080012181F3108821688A68EE
:100F5000520852008A6080F31088EFF3108001215C
:100F600081F3108821688A684027BA438A6080F339
:100F70001088E36700202066EFF31080012181F3E1
:100F8000108821680A68B2430A6080F31088206FD5
:100F9000FFF787FA288B698B401A81B231E0288BE2
:100FA000698B401A81B2688B0028A1D000299FD09C
:100FB000EFF31080012585F310881568FF2721378E
:100FC000BD43156080F31088EFF31080012282F397
:100FD0001088226895686D086D00956080F3108810
:100FE000E367002020666066EFF31080012282F341
:100FF000108800E009E022681368B343136080F3AF
:1010000010882046FFF7DCFEF8BDC50208D5750242
:1010100006D50120000510622046FFF7D2FEF8BD7C
:10102000050606D50D0604D5A16E002900D053E7AC
:10103000F8BD4006FCD54806FAD52046EFF31081EE
:10104000012484F3108815684024A543156081F3BA
:10105000108883670021816600F0B4F8F8BD0000B5
:101060000F08000020010004F913000810B5040067
:1010700003D0A06F002802D007E0012010BD00219E
:1010800074200155204600F027F82420A06720682E
:101090000168490849000160204600F08FFA0128E4
:1010A000ECD0606A002802D0204600F00EF92068DB
:1010B00041680922D20291434160206881682A2256
:1010C000914381602068016801221143016020463C
:1010D00000F060F910BD000010B586B00446142180
:1010E0006846FFF7FAF816492068884225D1154866
:1010F000C2690121C9040A43C261C2690A4005925A
:10110000426989100A434261406908400590032002
:10111000022100900390019104200021049002918B
:1011200009206946C006FFF701FA002211461D207A
:10113000FFF744FB1D20FFF735FB06B010BD000094
:10114000004C00400010024070B5C36F202B2BD123
:1011500000290BD0002A09D0012483682403A3426C
:1011600006D10369002B03D1CB0701D0012070BD4C
:10117000034660331C7D012C16D001241C7500230E
:101180000366046863681B020BD5EFF31083012527
:1011900085F3108825680126B6063543256083F35C
:1011A000108800F0BDFA70BD022070BD10B501229C
:1011B00002490348FFF7C8FF10BD000000000020EF
:1011C000140000207047FEE730B587B01421684650
:1011D000FFF783F815484269012189050A434261F6
:1011E00042690A400592426949110A4342614269D3
:1011F0000A400592426989000A43426140690F240E
:1012000008400B4DA4010590002221462846FFF717
:101210006FFA002101200291039101900094694628
:101220002846FFF783F907B030BD000000100240E8
:101230000008004810B50C480A4901604B21C9015B
:10124000416000218160C16001618161C1610C2246
:10125000016242614162FFF709FF002801D072B6C6
:10126000FEE710BD004C004014000020FEE7704770
:10127000704710B5FFF748FA10BD10B592B0342191
:101280006846FFF72AF800240F94202000900D9460
:1012900001200E940890109409946846FFF776FB9D
:1012A000002801D072B6FEE707200D9003200E90B3
:1012B0000F94012110940DA8FFF784FA002801D0A3
:1012C00072B6FEE712B010BD704710B5818CC90729
:1012D00007D001684A6801235B049A43836A1A4372
:1012E0004A60818C890707D501684A6801231B047D
:1012F0009A43C36A1A434A60818C490707D501683B
:101300004A6801239B049A43036B1A434A60818C09
:10131000090707D501684A680123DB039A43436B39
:101320001A434A60818CC90607D502689168012377
:101330001B039943836B19439160818C890607D500
:1013400001688A6801235B039A43C36B1A438A606E
:10135000818C490612D503685A6801210905046C7D
:101360008A4322435A60026C8A4207D1026851685C
:1013700003235B059943436C19435160818C090633
:1013800007D501684A680123DB04806C9A43024355
:101390004A6010BDF8B50446002680300660FFF7AD
:1013A000ADF9054620680068124F000709D50121F4
:1013B0002B46002249052046009700F00BFA002832
:1013C0000DD12068006840070BD501212B46002273
:1013D00089052046009700F0FDF9002801D0032080
:1013E000F8BD2020A067E0672666603426750020DF
:1013F000F8BD0000FFFFFF0110B5406A0022014662
:1014000040314A834A82FFF7DDFC10BD10B5EFF38F
:101410001081012282F3108802681368FF242134AE
:10142000A343136081F31088EFF31081012282F34C
:101430001088026893685B085B00936081F31088F2
:10144000016E01290BD1EFF31081012282F3108884
:10145000026813681024A343136081F310882021CD
:10146000C16700210166416610BD70B5014640317B
:101470008B8BC46F0268222C04D09069082108432A
:10148000906170BD928C446D1A402280426D921C16
:1014900042654A8B521E4A834A8B002AF1D1EFF3F0
:1014A0001082012383F3108803681C68FF2521350F
:1014B000AC431C6082F31088EFF31082012383F3A6
:1014C000108803689C68640864009C6082F310883C
:1014D0002022C26700224266036E012B02D0FFF772
:1014E00065FE70BD0266EFF31082012383F310885E
:1014F0000468256810239D43256082F310880268E4
:10150000D469E443E40600D41362098BFFF758FC66
:1015100070BD70B5014640318B8BC46F0268222CC0
:1015200004D0906908210843906170BD928C1A40E4
:10153000436D1A70426D521C42654A8B521E4A839B
:101540004A8B002AF1D1EFF31082012383F3108834
:1015500003681C68FF252135AC431C6082F31088AA
:10156000EFF31082012383F3108803689C686408FA
:1015700064009C6082F310882022C26700224266C9
:10158000036E012B02D0FFF711FE70BD0266EFF370
:101590001082012383F310880468256810239D437B
:1015A000256082F310880268D469E443E40600D41D
:1015B0001362098BFFF704FC70BD000070B5044690
:1015C00080682169E2690843616900251143084385
:1015D00021680A684A4B1A4002430A602068416841
:1015E000032212039143E26811434160216AA0691A
:1015F0000143206882680B231B029A430A438260DE
:10160000404A2068404990420AD1086B8007800F09
:1016100022D0012816D0022816D003281ED10FE0B0
:101620003A4A904212D1096B03200004014016D0BF
:1016300001200004091A05D0091A05D081420DD1F4
:1016400002210CE004210AE0082108E03049884228
:1016500002D03049884201D1002100E01021012050
:10166000E369C0032C4A2D4E834223D1002906D0C2
:10167000022907D0042907D0082937D108E0FFF74D
:101680002BF903E0104603E0FFF736F9002831D0CC
:10169000616840004A088018FEF721FE80B20146CA
:1016A0001039B14222D81D49491C01400007400FA2
:1016B00008431DE0002906D0022907D0042907D0DD
:1016C000082913D108E0FFF707F903E0104603E00B
:1016D000FFF712F900280DD061684A081018FEF7CC
:1016E000FEFD80B201461039B14201D9012501E069
:1016F0002168C86000206066A066284670BD0000B2
:10170000F369FFEF00380140001002400044004040
:1017100000480040004C004000127A00EFFF00003B
:1017200070B54165014640310A834A830022426612
:10173000012384681B03FF259C4204D10469002C0B
:1017400013D1214C0AE07F26002C09D001252D075A
:10175000AC420CD10469002C05D03F248C8307E0F7
:101760000469002C01D08E8302E08D8300E08A831F
:1017700080210A502221C167EFF31081012484F3F4
:1017800010880468A56801263543A56081F3108898
:101790008168994202D10169002912D00B49416642
:1017A00074210A54EFF31081012282F3108800683B
:1017B0000268FF2321331A43026081F3108800205E
:1017C00070BD0349EBE70000FF010000131500089E
:1017D0006B140008FFB581B0054617460446603516
:1017E0000A9E55E0701C53D0FEF788FF0499401AFA
:1017F000B04230D8002E2ED020680168490747D566
:10180000C069C043000543D401202168C0020862BA
:10181000EFF31080012181F3108821680B68FF220B
:10182000A13293430B6080F31088EFF31080012105
:1018300081F3108821688A68520852008A6080F318
:1018400010882020A067E067803420600020287581
:10185000032005B0F0BDEFF31080012181F3108863
:1018600021680B68FF22A13293430B6080F310883C
:10187000EFF31080012181F3108821688A685208F3
:1018800052008A6080F310882020A067E067DDE7BF
:101890002068C1690298884304D00020B842A1D0D2
:1018A0000020D6E70120F9E710B50248FFF78CFACF
:1018B00010BD000014000020F8B5040C8BB22646C1
:1018C00082B25E430D0C1046370C58433604801923
:1018D0000021794116466E43370C36048019794150
:1018E00026466E438919F8BD8307FF22DB0E9A4016
:1018F0008907090E9940002808DB830809489B00E6
:101900001B18186890430843186070470007000FC1
:101910000838830804489B001B18D8699043084383
:10192000D861704700E400E000ED00E0FEF7F4FE4F
:10193000FFF7A3FCFFF748FCFFF77CFCFF2601360E
:101940000E4C0F4F002501220C490E48FFF7FCFBFF
:10195000207831280CD032280CD033280CD03428F1
:10196000F1D1012149023846FEF7BAFE2570EAE7B7
:101970004021F8E78021F6E73146F4E70000002037
:1019800000080048140000200000000000000000D3
:101990000102030406070809000000000102030415
:1019A000C019000800000020140000000401000815
:1019B000D419000814000020E406000020010008EB
:1019C0000000000001000000040000000000000012
:0419D00000127A0087
:04000005080000C12E
:00000001FF
